{
  "transactions": [
    {
      "hash": "0xcd6575c47ec739f868e1d1a2518fa3f1504b866b11552cfe14294211cd056319",
      "transactionType": "CALL",
      "contractName": null,
      "contractAddress": "0x092b84caede9e1c52c7baca840372f4c18baa3f1",
      "function": "setRandomnessCoordinator(address)",
      "arguments": [
        "0x9DdfaCa8183c41ad55329BdeeD9F6A8d53168B1B"
      ],
      "transaction": {
        "from": "0xdfd4abaf11a1a8773983e708c34a0c8cf7c41bd6",
        "to": "0x092b84caede9e1c52c7baca840372f4c18baa3f1",
        "gas": "0xa677",
        "value": "0x0",
        "input": "0x36882a1d0000000000000000000000009ddfaca8183c41ad55329bdeed9f6a8d53168b1b",
        "nonce": "0x2c",
        "chainId": "0xaa36a7"
      },
      "additionalContracts": [],
      "isFixedGasLimit": false
    },
    {
      "hash": "0xa7396366d75d4935c48eeda96af9a40e9328cfdd01b49375bddf64e5b9bbb3bd",
      "transactionType": "CALL",
      "contractName": null,
      "contractAddress": "0x092b84caede9e1c52c7baca840372f4c18baa3f1",
      "function": "setVrfConfig(bytes32,uint256,uint16,uint32,bool)",
      "arguments": [
        "0x787d74caea10b2b357790d5b5247c2f63d1d91572a9846f780606e4d953677ae",
        "89522645438089253071414158285517994317776485241394213856199805347784431144506",
        "3",
        "200000",
        "true"
      ],
      "transaction": {
        "from": "0xdfd4abaf11a1a8773983e708c34a0c8cf7c41bd6",
        "to": "0x092b84caede9e1c52c7baca840372f4c18baa3f1",
        "gas": "0xddb6",
        "value": "0x0",
        "input": "0x995cd210787d74caea10b2b357790d5b5247c2f63d1d91572a9846f780606e4d953677aec5ec058ed902ca53cd761c1287f2acfc846f1a15f81ed20a7c4b3ebece668e3a00000000000000000000000000000000000000000000000000000000000000030000000000000000000000000000000000000000000000000000000000030d400000000000000000000000000000000000000000000000000000000000000001",
        "nonce": "0x2d",
        "chainId": "0xaa36a7"
      },
      "additionalContracts": [],
      "isFixedGasLimit": false
    }
  ],
  "receipts": [
    {
      "status": "0x1",
      "cumulativeGasUsed": "0x196cf79",
      "logs": [
        {
          "address": "0x092b84caede9e1c52c7baca840372f4c18baa3f1",
          "topics": [
            "0xd02b08fa565a1a05fdea28119134fcd30c310da01053d8fe62a126ce95cc2b89",
            "0x0000000000000000000000005ce8d5a2bc84beb22a398cca51996f7930313d61",
            "0x0000000000000000000000009ddfaca8183c41ad55329bdeed9f6a8d53168b1b"
          ],
          "data": "0x",
          "blockHash": "0xa88b0d3234d4ce1de59bdd31f6a22ccbf9d18c96c3604dd520de24f3a3dc5566",
          "blockNumber": "0xa0467c",
          "blockTimestamp": "0x69c104f4",
          "transactionHash": "0xa7396366d75d4935c48eeda96af9a40e9328cfdd01b49375bddf64e5b9bbb3bd",
          "transactionIndex": "0x72",
          "logIndex": "0x3bb",
          "removed": false
        }
      ],
      "logsBloom": "0x00000004000000000000000000000000000400000000080000000000000000000000000000000000000000000000000000000000000000000000000000000000002000000000000000000000000000000000000000000000000000400000000000000000000000000000000000000000000000000000000000000000000000000000000000000000000000000000000000000000002000000001000000000000000000000000000000000000010000100000000000000000000004000000000000000000000000000000000000000000000000400000000000000000000000000010000000000000000000000000000000000000000000000000000000000000",
      "type": "0x2",
      "transactionHash": "0xa7396366d75d4935c48eeda96af9a40e9328cfdd01b49375bddf64e5b9bbb3bd",
      "transactionIndex": "0x72",
      "blockHash": "0xa88b0d3234d4ce1de59bdd31f6a22ccbf9d18c96c3604dd520de24f3a3dc5566",
      "blockNumber": "0xa0467c",
      "gasUsed": "0x7885",
      "effectiveGasPrice": "0xf4418",
      "from": "0xdfd4abaf11a1a8773983e708c34a0c8cf7c41bd6",
      "to": "0x092b84caede9e1c52c7baca840372f4c18baa3f1",
      "contractAddress": null
    },
    {
      "status": "0x1",
      "cumulativeGasUsed": "0x1976712",
      "logs": [
        {
          "address": "0x092b84caede9e1c52c7baca840372f4c18baa3f1",
          "topics": [
            "0xe6516bdec9bdf685a7307aed89b4dbe7536d6aa9431145cac7616ab2abcb3e11"
          ],
          "data": "0x787d74caea10b2b357790d5b5247c2f63d1d91572a9846f780606e4d953677aec5ec058ed902ca53cd761c1287f2acfc846f1a15f81ed20a7c4b3ebece668e3a00000000000000000000000000000000000000000000000000000000000000030000000000000000000000000000000000000000000000000000000000030d400000000000000000000000000000000000000000000000000000000000000001",
          "blockHash": "0xa88b0d3234d4ce1de59bdd31f6a22ccbf9d18c96c3604dd520de24f3a3dc5566",
          "blockNumber": "0xa0467c",
          "blockTimestamp": "0x69c104f4",
          "transactionHash": "0xcd6575c47ec739f868e1d1a2518fa3f1504b866b11552cfe14294211cd056319",
          "transactionIndex": "0x73",
          "logIndex": "0x3bc",
          "removed": false
        }
      ],
      "logsBloom": "0x00000004000000000000000000000000000400000000000000000000000000000000000000000000000000000000000000000000000000000000000000000000000000000000000000000000000000000000000000000000000000000000000000080000000000000000000000000000000000000000000000000000000000000000000000000000000000000000000000000000000000000000000000000000000000000000000000000000000000000000000000000480000000000000000000000000000000000000000000000000000000400000000000000000000000000000000000000000000000000000000000000000000000000000000000000000",
      "type": "0x2",
      "transactionHash": "0xcd6575c47ec739f868e1d1a2518fa3f1504b866b11552cfe14294211cd056319",
      "transactionIndex": "0x73",
      "blockHash": "0xa88b0d3234d4ce1de59bdd31f6a22ccbf9d18c96c3604dd520de24f3a3dc5566",
      "blockNumber": "0xa0467c",
      "gasUsed": "0x9799",
      "effectiveGasPrice": "0xf4418",
      "from": "0xdfd4abaf11a1a8773983e708c34a0c8cf7c41bd6",
      "to": "0x092b84caede9e1c52c7baca840372f4c18baa3f1",
      "contractAddress": null
    }
  ],
  "libraries": [],
  "pending": [],
  "returns": {},
  "timestamp": 1774257398410,
  "chain": 11155111,
  "commit": null
}