{
  "transactions": [
    {
      "hash": "0xa1427f52f93c87eeb41d8992edf8d0900b2db28055278eb7037eafb31d705c93",
      "transactionType": "CALL",
      "contractName": null,
      "contractAddress": "0x7c362b7b6f39d022894eb77d8f257ab04e3e6a2f",
      "function": "fulfill(address,uint256,uint256)",
      "arguments": [
        "0xBADD4DDbD5394B02b4243d0023Ee2d607Cda5F02",
        "2",
        "50"
      ],
      "transaction": {
        "from": "0xdfd4abaf11a1a8773983e708c34a0c8cf7c41bd6",
        "to": "0x7c362b7b6f39d022894eb77d8f257ab04e3e6a2f",
        "gas": "0x2a17c",
        "value": "0x0",
        "input": "0x7f8ce9b9000000000000000000000000badd4ddbd5394b02b4243d0023ee2d607cda5f0200000000000000000000000000000000000000000000000000000000000000020000000000000000000000000000000000000000000000000000000000000032",
        "nonce": "0x1e",
        "chainId": "0xaa36a7"
      },
      "additionalContracts": [],
      "isFixedGasLimit": false
    }
  ],
  "receipts": [
    {
      "status": "0x1",
      "cumulativeGasUsed": "0x10fabcd",
      "logs": [
        {
          "address": "0xbadd4ddbd5394b02b4243d0023ee2d607cda5f02",
          "topics": [
            "0x1ed58ea01b6a1783673c7a8a64a8fb49e4f84f7ed3602af6dc4a1a574bec5627",
            "0x0000000000000000000000000000000000000000000000000000000000000002",
            "0x0000000000000000000000000000000000000000000000000000000000000004"
          ],
          "data": "0x0000000000000000000000000000000000000000000000000000000000000032000000000000000000000000000000000000000000000000000000000000000300000000000000000000000000000000000000000000000000b1a2bc2ec50000",
          "blockHash": "0x6c6712e29ec33519059451a3825d7f36b444f7ef57d8b33958bf36a07a9786dc",
          "blockNumber": "0xa04271",
          "blockTimestamp": "0x69c0d2b4",
          "transactionHash": "0xa1427f52f93c87eeb41d8992edf8d0900b2db28055278eb7037eafb31d705c93",
          "transactionIndex": "0x71",
          "logIndex": "0x28b",
          "removed": false
        },
        {
          "address": "0x7c362b7b6f39d022894eb77d8f257ab04e3e6a2f",
          "topics": [
            "0x899e21cb9c04c057a23b3772d826070d913fbe9745694e9f435db35d03dfa8c4",
            "0x0000000000000000000000000000000000000000000000000000000000000002",
            "0x000000000000000000000000badd4ddbd5394b02b4243d0023ee2d607cda5f02"
          ],
          "data": "0x0000000000000000000000000000000000000000000000000000000000000032",
          "blockHash": "0x6c6712e29ec33519059451a3825d7f36b444f7ef57d8b33958bf36a07a9786dc",
          "blockNumber": "0xa04271",
          "blockTimestamp": "0x69c0d2b4",
          "transactionHash": "0xa1427f52f93c87eeb41d8992edf8d0900b2db28055278eb7037eafb31d705c93",
          "transactionIndex": "0x71",
          "logIndex": "0x28c",
          "removed": false
        }
      ],
      "logsBloom": "0x04000000000000000000000000000000000000000000010000000000000004000000000000000000000000000000000000000000002000000000000000000000000000000000000000000000008008000000000000000000000000000000000008000000000000000000000000000000000000000000000000000000000000000000000002000000000000000000000000000000000000000000000000000000000000000100000000000100000000000000000000000000002000000000000000000000008000000000200000002000000000008000000000100080000000000000000000000020000000000000000002000000008000000000200000000000",
      "type": "0x2",
      "transactionHash": "0xa1427f52f93c87eeb41d8992edf8d0900b2db28055278eb7037eafb31d705c93",
      "transactionIndex": "0x71",
      "blockHash": "0x6c6712e29ec33519059451a3825d7f36b444f7ef57d8b33958bf36a07a9786dc",
      "blockNumber": "0xa04271",
      "gasUsed": "0x1cc81",
      "effectiveGasPrice": "0xf424f",
      "from": "0xdfd4abaf11a1a8773983e708c34a0c8cf7c41bd6",
      "to": "0x7c362b7b6f39d022894eb77d8f257ab04e3e6a2f",
      "contractAddress": null
    }
  ],
  "libraries": [],
  "pending": [],
  "returns": {},
  "timestamp": 1774244534927,
  "chain": 11155111,
  "commit": null
}