{
  "transactions": [
    {
      "hash": "0x4056caf217bddd44352a0b3f40b9d0ed50c8879454919e5ce73faa0c57903605",
      "transactionType": "CALL",
      "contractName": null,
      "contractAddress": "0xbadd4ddbd5394b02b4243d0023ee2d607cda5f02",
      "function": "setExpectedReactiveSender(address)",
      "arguments": [
        "0xDFD4AbAf11a1a8773983e708c34A0c8Cf7c41Bd6"
      ],
      "transaction": {
        "from": "0xdfd4abaf11a1a8773983e708c34a0c8cf7c41bd6",
        "to": "0xbadd4ddbd5394b02b4243d0023ee2d607cda5f02",
        "gas": "0xb084",
        "value": "0x0",
        "input": "0x32c6d409000000000000000000000000dfd4abaf11a1a8773983e708c34a0c8cf7c41bd6",
        "nonce": "0x19",
        "chainId": "0xaa36a7"
      },
      "additionalContracts": [],
      "isFixedGasLimit": false
    }
  ],
  "receipts": [
    {
      "status": "0x1",
      "cumulativeGasUsed": "0xd08eaf",
      "logs": [
        {
          "address": "0xbadd4ddbd5394b02b4243d0023ee2d607cda5f02",
          "topics": [
            "0x3f1c017cfa325985b6bceb046e30a2d957d70d32527b956aafbd30092ebf4d29",
            "0x00000000000000000000000024d2177b7aa0521fe10010a30aef7ba988f6674f",
            "0x000000000000000000000000dfd4abaf11a1a8773983e708c34a0c8cf7c41bd6"
          ],
          "data": "0x",
          "blockHash": "0xc7d56123db4a7a8614c484d6c25bcf7fb1632052c039c687c71f6ad49e73b919",
          "blockNumber": "0xa040d0",
          "blockTimestamp": "0x69c0beb0",
          "transactionHash": "0x4056caf217bddd44352a0b3f40b9d0ed50c8879454919e5ce73faa0c57903605",
          "transactionIndex": "0x6b",
          "logIndex": "0x23c",
          "removed": false
        }
      ],
      "logsBloom": "0x00000000000000000000000000800000000000000001000000000000000000000000000000000000000000000000000000000000000000000000000000000000000000000000000000000000008000000000040000010000000000000000020000000000000000000000000000000000000100000000000000000000000000000000000000000000000000000000000000000020000000000000000000000000000000000000000000000000000000000000000000000000000000000000000000000000000000000000200000000000000000000000000000100000000000000000000000000000000000000000000000000100000000800000000000000000",
      "type": "0x2",
      "transactionHash": "0x4056caf217bddd44352a0b3f40b9d0ed50c8879454919e5ce73faa0c57903605",
      "transactionIndex": "0x6b",
      "blockHash": "0xc7d56123db4a7a8614c484d6c25bcf7fb1632052c039c687c71f6ad49e73b919",
      "blockNumber": "0xa040d0",
      "gasUsed": "0x78b2",
      "effectiveGasPrice": "0xf424c",
      "from": "0xdfd4abaf11a1a8773983e708c34a0c8cf7c41bd6",
      "to": "0xbadd4ddbd5394b02b4243d0023ee2d607cda5f02",
      "contractAddress": null
    }
  ],
  "libraries": [],
  "pending": [],
  "returns": {},
  "timestamp": 1774239410953,
  "chain": 11155111,
  "commit": null
}