{
  "transactions": [
    {
      "hash": "0xfcec25b5060788a83458c37d0aaf76694ed7b49a6c48cdae338940b28ddf4e23",
      "transactionType": "CALL",
      "contractName": null,
      "contractAddress": "0x092b84caede9e1c52c7baca840372f4c18baa3f1",
      "function": "setExpectedReactiveSender(address)",
      "arguments": [
        "0xDFD4AbAf11a1a8773983e708c34A0c8Cf7c41Bd6"
      ],
      "transaction": {
        "from": "0xdfd4abaf11a1a8773983e708c34a0c8cf7c41bd6",
        "to": "0x092b84caede9e1c52c7baca840372f4c18baa3f1",
        "gas": "0x111d2",
        "value": "0x0",
        "input": "0x32c6d409000000000000000000000000dfd4abaf11a1a8773983e708c34a0c8cf7c41bd6",
        "nonce": "0x24",
        "chainId": "0xaa36a7"
      },
      "additionalContracts": [],
      "isFixedGasLimit": false
    }
  ],
  "receipts": [
    {
      "status": "0x1",
      "cumulativeGasUsed": "0xf3c179",
      "logs": [
        {
          "address": "0x092b84caede9e1c52c7baca840372f4c18baa3f1",
          "topics": [
            "0x3f1c017cfa325985b6bceb046e30a2d957d70d32527b956aafbd30092ebf4d29",
            "0x0000000000000000000000000000000000000000000000000000000000000000",
            "0x000000000000000000000000dfd4abaf11a1a8773983e708c34a0c8cf7c41bd6"
          ],
          "data": "0x",
          "blockHash": "0xf18957b674f253cddbc6f8de328b74e6735bd750cfdbbcb8cf8e110d843f5ecd",
          "blockNumber": "0xa04472",
          "blockTimestamp": "0x69c0eb80",
          "transactionHash": "0xfcec25b5060788a83458c37d0aaf76694ed7b49a6c48cdae338940b28ddf4e23",
          "transactionIndex": "0x70",
          "logIndex": "0x2bd",
          "removed": false
        }
      ],
      "logsBloom": "0x00000004000000000000000000800000000400000001000000000000000000000000000000000000000000000000000000000000000000000000000000000000000000000000000000000000000000000000040000010000000000000000000000000000020000000000000000000800000100000000000000000000000000000000000000000000000000000000000000000000000000000000000000000000000000000000000000000000000000000000000000000000000000000000000000000000000000000000000000000000000000400000000000000000000020000000000000000000000000000000000000000100000000000000000000000000",
      "type": "0x2",
      "transactionHash": "0xfcec25b5060788a83458c37d0aaf76694ed7b49a6c48cdae338940b28ddf4e23",
      "transactionIndex": "0x70",
      "blockHash": "0xf18957b674f253cddbc6f8de328b74e6735bd750cfdbbcb8cf8e110d843f5ecd",
      "blockNumber": "0xa04472",
      "gasUsed": "0xbb3b",
      "effectiveGasPrice": "0xf425d",
      "from": "0xdfd4abaf11a1a8773983e708c34a0c8cf7c41bd6",
      "to": "0x092b84caede9e1c52c7baca840372f4c18baa3f1",
      "contractAddress": null
    }
  ],
  "libraries": [],
  "pending": [],
  "returns": {},
  "timestamp": 1774250884549,
  "chain": 11155111,
  "commit": null
}