{
  "transactions": [
    {
      "hash": "0x3ccd373347196fa855197f4b4081203456b6927c8d0e56929806190dcf9446ad",
      "transactionType": "CALL",
      "contractName": null,
      "contractAddress": "0xbadd4ddbd5394b02b4243d0023ee2d607cda5f02",
      "function": "setExpectedReactiveSender(address)",
      "arguments": [
        "0x24d2177B7aa0521fE10010a30aef7BA988f6674f"
      ],
      "transaction": {
        "from": "0xdfd4abaf11a1a8773983e708c34a0c8cf7c41bd6",
        "to": "0xbadd4ddbd5394b02b4243d0023ee2d607cda5f02",
        "gas": "0x11223",
        "value": "0x0",
        "input": "0x32c6d40900000000000000000000000024d2177b7aa0521fe10010a30aef7ba988f6674f",
        "nonce": "0x16",
        "chainId": "0xaa36a7"
      },
      "additionalContracts": [],
      "isFixedGasLimit": false
    }
  ],
  "receipts": [
    {
      "status": "0x1",
      "cumulativeGasUsed": "0xdc4bcb",
      "logs": [
        {
          "address": "0xbadd4ddbd5394b02b4243d0023ee2d607cda5f02",
          "topics": [
            "0x3f1c017cfa325985b6bceb046e30a2d957d70d32527b956aafbd30092ebf4d29",
            "0x0000000000000000000000000000000000000000000000000000000000000000",
            "0x00000000000000000000000024d2177b7aa0521fe10010a30aef7ba988f6674f"
          ],
          "data": "0x",
          "blockHash": "0x3338ed6634e6c7362ccc40a743ecf1007471dc005f6b0f2abee7d4bd229c6916",
          "blockNumber": "0x9ff552",
          "blockTimestamp": "0x69bd1800",
          "transactionHash": "0x3ccd373347196fa855197f4b4081203456b6927c8d0e56929806190dcf9446ad",
          "transactionIndex": "0x4f",
          "logIndex": "0x72",
          "removed": false
        }
      ],
      "logsBloom": "0x00000000000000000000000000000000000000000001000000000000000000000000000000000000000000000000000000000000000000000000000000000000000000000000000000000000008000000000000000000000000000000000020000000000020000000000000000000800000100000000000000000000000000000000000000000000000000000000000000000020000000000000000000000000000000000000000000000000000000000000000000000000000000000000000000000000000000000000200000000000000000000000000000100000000020000000000000000000000000000000000000000100000000800000000000000000",
      "type": "0x2",
      "transactionHash": "0x3ccd373347196fa855197f4b4081203456b6927c8d0e56929806190dcf9446ad",
      "transactionIndex": "0x4f",
      "blockHash": "0x3338ed6634e6c7362ccc40a743ecf1007471dc005f6b0f2abee7d4bd229c6916",
      "blockNumber": "0x9ff552",
      "gasUsed": "0xbb72",
      "effectiveGasPrice": "0xf424b",
      "from": "0xdfd4abaf11a1a8773983e708c34a0c8cf7c41bd6",
      "to": "0xbadd4ddbd5394b02b4243d0023ee2d607cda5f02",
      "contractAddress": null
    }
  ],
  "libraries": [],
  "pending": [],
  "returns": {},
  "timestamp": 1774000129508,
  "chain": 11155111,
  "commit": null
}